{
  "contractName": "EcommerceStore",
  "abi": [
    {
      "constant": true,
      "inputs": [],
      "name": "productIndex",
      "outputs": [
        {
          "name": "",
          "type": "uint256"
        }
      ],
      "payable": false,
      "stateMutability": "view",
      "type": "function"
    },
    {
      "inputs": [],
      "payable": false,
      "stateMutability": "nonpayable",
      "type": "constructor"
    },
    {
      "constant": false,
      "inputs": [
        {
          "name": "_name",
          "type": "string"
        },
        {
          "name": "_category",
          "type": "string"
        },
        {
          "name": "_imageLink",
          "type": "string"
        },
        {
          "name": "_descLink",
          "type": "string"
        },
        {
          "name": "_listingStartTime",
          "type": "uint256"
        },
        {
          "name": "_listingEndTime",
          "type": "uint256"
        },
        {
          "name": "_price",
          "type": "uint256"
        },
        {
          "name": "_productCondition",
          "type": "uint256"
        }
      ],
      "name": "addProductToStore",
      "outputs": [],
      "payable": false,
      "stateMutability": "nonpayable",
      "type": "function"
    },
    {
      "constant": true,
      "inputs": [
        {
          "name": "_productId",
          "type": "uint256"
        }
      ],
      "name": "getProduct",
      "outputs": [
        {
          "name": "",
          "type": "uint256"
        },
        {
          "name": "",
          "type": "string"
        },
        {
          "name": "",
          "type": "string"
        },
        {
          "name": "",
          "type": "string"
        },
        {
          "name": "",
          "type": "string"
        },
        {
          "name": "",
          "type": "uint256"
        },
        {
          "name": "",
          "type": "uint256"
        },
        {
          "name": "",
          "type": "uint256"
        },
        {
          "name": "",
          "type": "address"
        },
        {
          "name": "",
          "type": "uint8"
        }
      ],
      "payable": false,
      "stateMutability": "view",
      "type": "function"
    }
  ],
  "bytecode": "0x6060604052341561000f57600080fd5b6000808190555033600360006101000a81548173ffffffffffffffffffffffffffffffffffffffff021916908373ffffffffffffffffffffffffffffffffffffffff160217905550610cd2806100666000396000f300606060405260043610610057576000357c0100000000000000000000000000000000000000000000000000000000900463ffffffff168063a508b9551461005c578063b9db15b4146101a6578063c897d5a6146103ea575b600080fd5b341561006757600080fd5b6101a4600480803590602001908201803590602001908080601f0160208091040260200160405190810160405280939291908181526020018383808284378201915050505050509190803590602001908201803590602001908080601f0160208091040260200160405190810160405280939291908181526020018383808284378201915050505050509190803590602001908201803590602001908080601f0160208091040260200160405190810160405280939291908181526020018383808284378201915050505050509190803590602001908201803590602001908080601f01602080910402602001604051908101604052809392919081815260200183838082843782019150505050505091908035906020019091908035906020019091908035906020019091908035906020019091905050610413565b005b34156101b157600080fd5b6101c760048080359060200190919050506106ae565b604051808b8152602001806020018060200180602001806020018a81526020018981526020018881526020018773ffffffffffffffffffffffffffffffffffffffff1673ffffffffffffffffffffffffffffffffffffffff16815260200186600281111561023157fe5b60ff16815260200185810385528e818151815260200191508051906020019080838360005b83811015610271578082015181840152602081019050610256565b50505050905090810190601f16801561029e5780820380516001836020036101000a031916815260200191505b5085810384528d818151815260200191508051906020019080838360005b838110156102d75780820151818401526020810190506102bc565b50505050905090810190601f1680156103045780820380516001836020036101000a031916815260200191505b5085810383528c818151815260200191508051906020019080838360005b8381101561033d578082015181840152602081019050610322565b50505050905090810190601f16801561036a5780820380516001836020036101000a031916815260200191505b5085810382528b818151815260200191508051906020019080838360005b838110156103a3578082015181840152602081019050610388565b50505050905090810190601f1680156103d05780820380516001836020036101000a031916815260200191505b509e50505050505050505050505050505060405180910390f35b34156103f557600080fd5b6103fd610b34565b6040518082815260200191505060405180910390f35b61041b610b3a565b838510151561042957600080fd5b600160008082825401925050819055506101606040519081016040528060005481526020018a8152602001898152602001888152602001878152602001868152602001858152602001848152602001600073ffffffffffffffffffffffffffffffffffffffff168152602001600060028111156104a257fe5b81526020018360018111156104b357fe5b60018111156104be57fe5b815250905080600160003373ffffffffffffffffffffffffffffffffffffffff1673ffffffffffffffffffffffffffffffffffffffff16815260200190815260200160002060008054815260200190815260200160002060008201518160000155602082015181600101908051906020019061053b929190610bd9565b506040820151816002019080519060200190610558929190610bd9565b506060820151816003019080519060200190610575929190610bd9565b506080820151816004019080519060200190610592929190610bd9565b5060a0820151816005015560c0820151816006015560e082015181600701556101008201518160080160006101000a81548173ffffffffffffffffffffffffffffffffffffffff021916908373ffffffffffffffffffffffffffffffffffffffff1602179055506101208201518160080160146101000a81548160ff0219169083600281111561061e57fe5b02179055506101408201518160080160156101000a81548160ff0219169083600181111561064857fe5b021790555090505033600260008054815260200190815260200160002060006101000a81548173ffffffffffffffffffffffffffffffffffffffff021916908373ffffffffffffffffffffffffffffffffffffffff160217905550505050505050505050565b60006106b8610c59565b6106c0610c59565b6106c8610c59565b6106d0610c59565b60008060008060006106e0610b3a565b60016000600260008f815260200190815260200160002060009054906101000a900473ffffffffffffffffffffffffffffffffffffffff1673ffffffffffffffffffffffffffffffffffffffff1673ffffffffffffffffffffffffffffffffffffffff16815260200190815260200160002060008d8152602001908152602001600020610160604051908101604052908160008201548152602001600182018054600181600116156101000203166002900480601f0160208091040260200160405190810160405280929190818152602001828054600181600116156101000203166002900480156108135780601f106107e857610100808354040283529160200191610813565b820191906000526020600020905b8154815290600101906020018083116107f657829003601f168201915b50505050508152602001600282018054600181600116156101000203166002900480601f0160208091040260200160405190810160405280929190818152602001828054600181600116156101000203166002900480156108b55780601f1061088a576101008083540402835291602001916108b5565b820191906000526020600020905b81548152906001019060200180831161089857829003601f168201915b50505050508152602001600382018054600181600116156101000203166002900480601f0160208091040260200160405190810160405280929190818152602001828054600181600116156101000203166002900480156109575780601f1061092c57610100808354040283529160200191610957565b820191906000526020600020905b81548152906001019060200180831161093a57829003601f168201915b50505050508152602001600482018054600181600116156101000203166002900480601f0160208091040260200160405190810160405280929190818152602001828054600181600116156101000203166002900480156109f95780601f106109ce576101008083540402835291602001916109f9565b820191906000526020600020905b8154815290600101906020018083116109dc57829003601f168201915b505050505081526020016005820154815260200160068201548152602001600782015481526020016008820160009054906101000a900473ffffffffffffffffffffffffffffffffffffffff1673ffffffffffffffffffffffffffffffffffffffff1673ffffffffffffffffffffffffffffffffffffffff1681526020016008820160149054906101000a900460ff166002811115610a9457fe5b6002811115610a9f57fe5b81526020016008820160159054906101000a900460ff166001811115610ac157fe5b6001811115610acc57fe5b815250509050806000015181602001518260400151836060015184608001518560a001518660c001518760e001518861010001518961012001518898508797508696508595509a509a509a509a509a509a509a509a509a509a50509193959799509193959799565b60005481565b6101606040519081016040528060008152602001610b56610c6d565b8152602001610b63610c6d565b8152602001610b70610c6d565b8152602001610b7d610c6d565b8152602001600081526020016000815260200160008152602001600073ffffffffffffffffffffffffffffffffffffffff16815260200160006002811115610bc157fe5b815260200160006001811115610bd357fe5b81525090565b828054600181600116156101000203166002900490600052602060002090601f016020900481019282601f10610c1a57805160ff1916838001178555610c48565b82800160010185558215610c48579182015b82811115610c47578251825591602001919060010190610c2c565b5b509050610c559190610c81565b5090565b602060405190810160405280600081525090565b602060405190810160405280600081525090565b610ca391905b80821115610c9f576000816000905550600101610c87565b5090565b905600a165627a7a72305820c702ad9ffd8c255a7187a4fa1f730de80878956203cc029fdb3cf073e6090dcc0029",
  "source": "pragma solidity ^0.4.13;\n\ncontract EcommerceStore {\n  enum ProductStatus { Open, Sold, Unsold }\n  enum ProductCondition { New, Used }\n\n  uint public productIndex;\n  mapping (address => mapping(uint => Product)) stores;\n  mapping (uint => address) productIdInStore;\n\n  address owner;\n\n  struct Product { //product constructor\n  uint id;\n  string name;\n  string category;\n  string imageLink;\n  string descLink;\n  uint listingStartTime;\n  uint listingEndTime;\n  uint price;\n  address buyer;\n  ProductStatus status;\n  ProductCondition condition;\n }\n\n function EcommerceStore() public {\n    productIndex = 0;\n    owner = msg.sender;\n  }\n\n//add product to store\n  function addProductToStore(string _name, string _category, string _imageLink, string _descLink, uint _listingStartTime,\n    uint _listingEndTime, uint _price, uint _productCondition) public {\n    require (_listingStartTime < _listingEndTime);\n    productIndex += 1;\n    Product memory product = Product(productIndex, _name, _category, _imageLink, _descLink, _listingStartTime, _listingEndTime,\n                     _price, 0, ProductStatus.Open, ProductCondition(_productCondition));\n    stores[msg.sender][productIndex] = product;\n    productIdInStore[productIndex] = msg.sender;\n  }\n\n//get product\n  function getProduct(uint _productId) view public returns (uint, string, string, string, string, uint, uint, uint, address, ProductStatus) {\n   Product memory product = stores[productIdInStore[_productId]][_productId];\n   return (product.id, product.name, product.category, product.imageLink, product.descLink, product.listingStartTime,\n       product.listingEndTime, product.price, product.buyer, product.status);\n  }\n}\n",
  "sourcePath": "/home/octipus/projects/dapp_eth-ipfs/contracts/EcommerceStore.sol",
  "compiler": {
    "name": "solc",
    "version": "0.4.21+commit.dfe3193c.Emscripten.clang"
  },
  "schemaVersion": "2.0.0",
  "updatedAt": "2018-04-08T13:17:46.874Z"
}