{
  "contractName": "Escrow",
  "abi": [
    {
      "constant": true,
      "inputs": [],
      "name": "seller",
      "outputs": [
        {
          "name": "",
          "type": "address"
        }
      ],
      "payable": false,
      "stateMutability": "view",
      "type": "function"
    },
    {
      "constant": true,
      "inputs": [],
      "name": "refundCount",
      "outputs": [
        {
          "name": "",
          "type": "uint256"
        }
      ],
      "payable": false,
      "stateMutability": "view",
      "type": "function"
    },
    {
      "constant": true,
      "inputs": [],
      "name": "buyer",
      "outputs": [
        {
          "name": "",
          "type": "address"
        }
      ],
      "payable": false,
      "stateMutability": "view",
      "type": "function"
    },
    {
      "constant": true,
      "inputs": [],
      "name": "amount",
      "outputs": [
        {
          "name": "",
          "type": "uint256"
        }
      ],
      "payable": false,
      "stateMutability": "view",
      "type": "function"
    },
    {
      "constant": true,
      "inputs": [],
      "name": "releaseCount",
      "outputs": [
        {
          "name": "",
          "type": "uint256"
        }
      ],
      "payable": false,
      "stateMutability": "view",
      "type": "function"
    },
    {
      "constant": true,
      "inputs": [],
      "name": "productId",
      "outputs": [
        {
          "name": "",
          "type": "uint256"
        }
      ],
      "payable": false,
      "stateMutability": "view",
      "type": "function"
    },
    {
      "constant": true,
      "inputs": [],
      "name": "fundsDisbursed",
      "outputs": [
        {
          "name": "",
          "type": "bool"
        }
      ],
      "payable": false,
      "stateMutability": "view",
      "type": "function"
    },
    {
      "constant": true,
      "inputs": [],
      "name": "arbiter",
      "outputs": [
        {
          "name": "",
          "type": "address"
        }
      ],
      "payable": false,
      "stateMutability": "view",
      "type": "function"
    },
    {
      "inputs": [
        {
          "name": "_productId",
          "type": "uint256"
        },
        {
          "name": "_buyer",
          "type": "address"
        },
        {
          "name": "_seller",
          "type": "address"
        },
        {
          "name": "_arbiter",
          "type": "address"
        }
      ],
      "payable": true,
      "stateMutability": "payable",
      "type": "constructor"
    },
    {
      "anonymous": false,
      "inputs": [
        {
          "indexed": false,
          "name": "_productId",
          "type": "uint256"
        },
        {
          "indexed": false,
          "name": "_buyer",
          "type": "address"
        },
        {
          "indexed": false,
          "name": "_seller",
          "type": "address"
        },
        {
          "indexed": false,
          "name": "_arbiter",
          "type": "address"
        }
      ],
      "name": "CreateEscrow",
      "type": "event"
    },
    {
      "anonymous": false,
      "inputs": [
        {
          "indexed": false,
          "name": "_productId",
          "type": "uint256"
        },
        {
          "indexed": false,
          "name": "_operation",
          "type": "string"
        },
        {
          "indexed": false,
          "name": "_operator",
          "type": "address"
        }
      ],
      "name": "UnlockAmount",
      "type": "event"
    },
    {
      "anonymous": false,
      "inputs": [
        {
          "indexed": false,
          "name": "_productId",
          "type": "uint256"
        },
        {
          "indexed": false,
          "name": "_amount",
          "type": "uint256"
        },
        {
          "indexed": false,
          "name": "_beneficiary",
          "type": "address"
        }
      ],
      "name": "DisburseAmount",
      "type": "event"
    },
    {
      "constant": true,
      "inputs": [],
      "name": "escrowInfo",
      "outputs": [
        {
          "name": "",
          "type": "address"
        },
        {
          "name": "",
          "type": "address"
        },
        {
          "name": "",
          "type": "address"
        },
        {
          "name": "",
          "type": "bool"
        },
        {
          "name": "",
          "type": "uint256"
        },
        {
          "name": "",
          "type": "uint256"
        }
      ],
      "payable": false,
      "stateMutability": "view",
      "type": "function"
    },
    {
      "constant": false,
      "inputs": [
        {
          "name": "caller",
          "type": "address"
        }
      ],
      "name": "releaseAmountToSeller",
      "outputs": [],
      "payable": false,
      "stateMutability": "nonpayable",
      "type": "function"
    },
    {
      "constant": false,
      "inputs": [
        {
          "name": "caller",
          "type": "address"
        }
      ],
      "name": "refundAmountToBuyer",
      "outputs": [],
      "payable": false,
      "stateMutability": "nonpayable",
      "type": "function"
    }
  ],
  "bytecode": "0x6060604052604051608080610ea8833981016040528080519060200190919080519060200190919080519060200190919080519060200190919050508360008190555082600160006101000a81548173ffffffffffffffffffffffffffffffffffffffff021916908373ffffffffffffffffffffffffffffffffffffffff16021790555081600260006101000a81548173ffffffffffffffffffffffffffffffffffffffff021916908373ffffffffffffffffffffffffffffffffffffffff16021790555080600360006101000a81548173ffffffffffffffffffffffffffffffffffffffff021916908373ffffffffffffffffffffffffffffffffffffffff160217905550346004819055506000600560006101000a81548160ff0219169083151502179055507f7527d0b8d16913563c5afb8fa2dc5b6257355ff7dfbefbdcfc1cf812a0f97c5e84848484604051808581526020018473ffffffffffffffffffffffffffffffffffffffff1673ffffffffffffffffffffffffffffffffffffffff1681526020018373ffffffffffffffffffffffffffffffffffffffff1673ffffffffffffffffffffffffffffffffffffffff1681526020018273ffffffffffffffffffffffffffffffffffffffff1673ffffffffffffffffffffffffffffffffffffffff16815260200194505050505060405180910390a150505050610c9b8061020d6000396000f3006060604052600436106100af576000357c0100000000000000000000000000000000000000000000000000000000900463ffffffff16806308551a53146100b45780630bda4dbf1461010957806358aad10b146101325780637150d8ae1461016b578063a97d1b10146101c0578063aa8c217c146101f9578063b8d08db214610222578063c5ce39111461024b578063d1a52e3014610274578063f3d25904146102a1578063fe25e00a14610375575b600080fd5b34156100bf57600080fd5b6100c76103ca565b604051808273ffffffffffffffffffffffffffffffffffffffff1673ffffffffffffffffffffffffffffffffffffffff16815260200191505060405180910390f35b341561011457600080fd5b61011c6103f0565b6040518082815260200191505060405180910390f35b341561013d57600080fd5b610169600480803573ffffffffffffffffffffffffffffffffffffffff169060200190919050506103f6565b005b341561017657600080fd5b61017e6107ac565b604051808273ffffffffffffffffffffffffffffffffffffffff1673ffffffffffffffffffffffffffffffffffffffff16815260200191505060405180910390f35b34156101cb57600080fd5b6101f7600480803573ffffffffffffffffffffffffffffffffffffffff169060200190919050506107d2565b005b341561020457600080fd5b61020c610b88565b6040518082815260200191505060405180910390f35b341561022d57600080fd5b610235610b8e565b6040518082815260200191505060405180910390f35b341561025657600080fd5b61025e610b94565b6040518082815260200191505060405180910390f35b341561027f57600080fd5b610287610b9a565b604051808215151515815260200191505060405180910390f35b34156102ac57600080fd5b6102b4610bad565b604051808773ffffffffffffffffffffffffffffffffffffffff1673ffffffffffffffffffffffffffffffffffffffff1681526020018673ffffffffffffffffffffffffffffffffffffffff1673ffffffffffffffffffffffffffffffffffffffff1681526020018573ffffffffffffffffffffffffffffffffffffffff1673ffffffffffffffffffffffffffffffffffffffff16815260200184151515158152602001838152602001828152602001965050505050505060405180910390f35b341561038057600080fd5b610388610c49565b604051808273ffffffffffffffffffffffffffffffffffffffff1673ffffffffffffffffffffffffffffffffffffffff16815260200191505060405180910390f35b600260009054906101000a900473ffffffffffffffffffffffffffffffffffffffff1681565b60095481565b600560009054906101000a900460ff1615151561041257600080fd5b600160009054906101000a900473ffffffffffffffffffffffffffffffffffffffff1673ffffffffffffffffffffffffffffffffffffffff168173ffffffffffffffffffffffffffffffffffffffff1614806104bb5750600260009054906101000a900473ffffffffffffffffffffffffffffffffffffffff1673ffffffffffffffffffffffffffffffffffffffff168173ffffffffffffffffffffffffffffffffffffffff16145b806105135750600360009054906101000a900473ffffffffffffffffffffffffffffffffffffffff1673ffffffffffffffffffffffffffffffffffffffff168173ffffffffffffffffffffffffffffffffffffffff16145b8015610570575060011515600660008373ffffffffffffffffffffffffffffffffffffffff1673ffffffffffffffffffffffffffffffffffffffff16815260200190815260200160002060009054906101000a900460ff16151514155b15610685576001600660008373ffffffffffffffffffffffffffffffffffffffff1673ffffffffffffffffffffffffffffffffffffffff16815260200190815260200160002060006101000a81548160ff02191690831515021790555060016007600082825401925050819055507fe31e37941fee7dca6bb1597da71841499d8cd0dfc5553e0889f6d1ca6038ce966000548260405180838152602001806020018373ffffffffffffffffffffffffffffffffffffffff1673ffffffffffffffffffffffffffffffffffffffff168152602001828103825260078152602001807f72656c6561736500000000000000000000000000000000000000000000000000815250602001935050505060405180910390a15b600260075414156107a957600260009054906101000a900473ffffffffffffffffffffffffffffffffffffffff1673ffffffffffffffffffffffffffffffffffffffff166108fc6004549081150290604051600060405180830381858888f1935050505015156106f457600080fd5b6001600560006101000a81548160ff0219169083151502179055507fdde1058856b8611b1f49ef2ebaef10c0441e48e8a6cbbec1ebdcbfb1862b57b4600054600454600260009054906101000a900473ffffffffffffffffffffffffffffffffffffffff16604051808481526020018381526020018273ffffffffffffffffffffffffffffffffffffffff1673ffffffffffffffffffffffffffffffffffffffff168152602001935050505060405180910390a15b50565b600160009054906101000a900473ffffffffffffffffffffffffffffffffffffffff1681565b600560009054906101000a900460ff161515156107ee57600080fd5b600160009054906101000a900473ffffffffffffffffffffffffffffffffffffffff1673ffffffffffffffffffffffffffffffffffffffff168173ffffffffffffffffffffffffffffffffffffffff1614806108975750600260009054906101000a900473ffffffffffffffffffffffffffffffffffffffff1673ffffffffffffffffffffffffffffffffffffffff168173ffffffffffffffffffffffffffffffffffffffff16145b806108ef5750600360009054906101000a900473ffffffffffffffffffffffffffffffffffffffff1673ffffffffffffffffffffffffffffffffffffffff168173ffffffffffffffffffffffffffffffffffffffff16145b801561094c575060011515600860008373ffffffffffffffffffffffffffffffffffffffff1673ffffffffffffffffffffffffffffffffffffffff16815260200190815260200160002060009054906101000a900460ff16151514155b15610a61576001600860008373ffffffffffffffffffffffffffffffffffffffff1673ffffffffffffffffffffffffffffffffffffffff16815260200190815260200160002060006101000a81548160ff02191690831515021790555060016009600082825401925050819055507fe31e37941fee7dca6bb1597da71841499d8cd0dfc5553e0889f6d1ca6038ce966000548260405180838152602001806020018373ffffffffffffffffffffffffffffffffffffffff1673ffffffffffffffffffffffffffffffffffffffff168152602001828103825260068152602001807f726566756e640000000000000000000000000000000000000000000000000000815250602001935050505060405180910390a15b60026009541415610b8557600160009054906101000a900473ffffffffffffffffffffffffffffffffffffffff1673ffffffffffffffffffffffffffffffffffffffff166108fc6004549081150290604051600060405180830381858888f193505050501515610ad057600080fd5b6001600560006101000a81548160ff0219169083151502179055507fdde1058856b8611b1f49ef2ebaef10c0441e48e8a6cbbec1ebdcbfb1862b57b4600054600454600160009054906101000a900473ffffffffffffffffffffffffffffffffffffffff16604051808481526020018381526020018273ffffffffffffffffffffffffffffffffffffffff1673ffffffffffffffffffffffffffffffffffffffff168152602001935050505060405180910390a15b50565b60045481565b60075481565b60005481565b600560009054906101000a900460ff1681565b600080600080600080600160009054906101000a900473ffffffffffffffffffffffffffffffffffffffff16600260009054906101000a900473ffffffffffffffffffffffffffffffffffffffff16600360009054906101000a900473ffffffffffffffffffffffffffffffffffffffff16600560009054906101000a900460ff16600754600954955095509550955095509550909192939495565b600360009054906101000a900473ffffffffffffffffffffffffffffffffffffffff16815600a165627a7a72305820fa00ceccc0d7e11be4421a5ff6a1e56e99fe5c1897ae2214dd4bb84972dd80b10029",
  "source": "pragma solidity ^0.4.21;\n\ncontract Escrow {\n  uint public productId;\n  address public buyer;\n  address public seller;\n  address public arbiter;\n  uint public amount;\n  bool public fundsDisbursed;\n  mapping (address => bool) releaseAmount;\n  uint public releaseCount;\n  mapping (address => bool) refundAmount;\n  uint public refundCount;\n\n//events\n  event CreateEscrow(uint _productId, address _buyer, address _seller, address _arbiter);\n  event UnlockAmount(uint _productId, string _operation, address _operator);\n  event DisburseAmount(uint _productId, uint _amount, address _beneficiary);\n\n//assign\n  function Escrow(uint _productId, address _buyer, address _seller, address _arbiter) payable public {\n    productId = _productId;\n    buyer = _buyer;\n    seller = _seller;\n    arbiter = _arbiter;\n    amount = msg.value;\n    fundsDisbursed = false;\n    emit CreateEscrow(_productId, _buyer, _seller, _arbiter);\n  }\n\n  function escrowInfo() view public returns (address, address, address, bool, uint, uint) {\n    return (buyer, seller, arbiter, fundsDisbursed, releaseCount, refundCount);\n  }\n\n//release amount\n  function releaseAmountToSeller(address caller) public {\n    require(!fundsDisbursed);\n    if ((caller == buyer || caller == seller || caller == arbiter) && releaseAmount[caller] != true) {\n      releaseAmount[caller] = true;\n      releaseCount += 1;\n      emit UnlockAmount(productId, \"release\", caller);\n    }\n\n    if (releaseCount == 2) {\n      seller.transfer(amount);\n      fundsDisbursed = true;\n      emit DisburseAmount(productId, amount, seller);\n    }\n  }\n\n// refund amount\n  function refundAmountToBuyer(address caller) public {\n    require(!fundsDisbursed);\n    if ((caller == buyer || caller == seller || caller == arbiter) && refundAmount[caller] != true) {\n      refundAmount[caller] = true;\n      refundCount += 1;\n      emit UnlockAmount(productId, \"refund\", caller);\n    }\n\n    if (refundCount == 2) {\n      buyer.transfer(amount);\n      fundsDisbursed = true;\n      emit DisburseAmount(productId, amount, buyer);\n    }\n  }\n}\n",
  "sourcePath": "/home/octipus/projects/dapp_eth-ipfs/contracts/Escrow.sol",
  "compiler": {
    "name": "solc",
    "version": "0.4.21+commit.dfe3193c.Emscripten.clang"
  },
  "schemaVersion": "2.0.0",
  "updatedAt": "2018-04-23T18:17:54.790Z"
}